:100000000C9434000C9449000C9449000C94490061
:100010000C9449000C9449000C9449000C9449003C
:100020000C9449000C9449000C9449000C9449002C
:100030000C9449000C9449000C9449000C9449001C
:100040000C9449000C9449000C9449000C9449000C
:100050000C9449000C9449000C9449000C944900FC
:100060000C9449000C94490011241FBECFEFD8E036
:10007000DEBFCDBF11E0A0E0B1E0E8E7F1E002C0F3
:1000800005900D92A830B107D9F70E944B000C944F
:10009000BA000C940000CF93DF93CDB7DEB728975A
:1000A0000FB6F894DEBF0FBECDBF8091C100877E32
:1000B0008093C10088E0E0E0F1E0DE01119601905C
:1000C0000D928A95E1F78FEF8AB9BE01675F7F4F86
:1000D0008E010E5F1F4F780141E050E01BB8FE011A
:1000E00031961BB19F01CA01019002C0880F991F70
:1000F0000A94E2F7812B8BB91FE789EA93E011504C
:1001000080409040E1F700C000009BB18A01D90116
:100110000C9002C0000F111F0A94E2F7802F809507
:1001200089238BB9E617F707E1F6FE0138962BB164
:10013000CA01029002C0880F991F0A94E2F7822B2D
:100140008BB91FE729EA83E0115020408040E1F796
:1001500000C000009BB19A01008002C0220F331F33
:100160000A94E2F7822F809589238BB9EE16FF0659
:08017000F1F6B4CFF894FFCFC3
:08017800000102030405060763
:00000001FF
