S00C00007A6164332E73726563A6
S11300000C9434000C943E000C943E000C943E007E
S11300100C943E000C943E000C943E000C943E0064
S11300200C943E000C943E000C943E000C943E0054
S11300300C943E000C943E000C943E000C943E0044
S11300400C943E000C943E000C943E000C943E0034
S11300500C943E000C943E000C943E000C943E0024
S11300600C943E000C943E0011241FBECFEFD8E048
S1130070DEBFCDBF0E9440000C94DF000C94000052
S1130080E1ECF0E08081877E80838FEF8AB98BB9C1
S11300902FEF33ED90E3215030409040E1F700C062
S11300A0000058985A9859985B985C985D982FEF7F
S11300B033ED90E3215030409040E1F700C0000060
S11300C08BB95A9859982FEF33ED90E32150304073
S11300D09040E1F700C000008BB958985E98599899
S11300E05B985C982FEF33ED90E3215030409040C3
S11300F0E1F700C000008BB958985A9859985B985A
S11301005E982FEF33ED90E3215030409040E1F7BB
S113011000C000008BB95A9859985E985D982FEFEB
S113012033ED90E3215030409040E1F700C00000EF
S11301308BB958985A985B985D985E982FEF33ED79
S113014090E3215030409040E1F700C000008BB9AB
S113015058985A985B985C985D985E982FEF33EDA9
S113016090E3215030409040E1F700C000008BB98B
S113017058985A9859982FEF33ED90E32150304016
S11301809040E1F700C000008BB958985A985998EC
S11301905B985C985D985E982FEF33ED90E3215067
S11301A030409040E1F700C000008BB958985A984D
S11301B059985B985D985E9880E090E00895F89473
S10501C0FFCF6B
S9030000FC
